:020000040000FA
:100000000C9461000C949F010C9478010C947E0078
:100010000C947E000C947E000C947E000C947E0068
:100020000C947E000C947E000C947E000C947E0058
:100030000C947E000C94C6010C947E000C947E00FF
:100040000C942E010C947E000C947E000C947E0087
:100050000C947E000C947E000C947E000C947E0028
:100060000C947E000C947E00000000002400270009
:100070002A000000000023002600290000000000E4
:10008000250028002B0004040404040404040202D4
:100090000202020203030303030301020408102007
:1000A0004080010204081020010204081020000012
:1000B0000008000201000003040700000000000027
:1000C000000011241FBECFEFD8E0DEBFCDBF11E08E
:1000D000A0E0B1E0E0E2F8E002C005900D92A630A9
:1000E000B107D9F721E0A6E0B1E001C01D92AA3125
:1000F000B207E1F70E94ED010C940E040C9400008D
:10010000833081F028F4813099F08230A9F008958D
:100110008730A9F08830C9F08430B1F48091800034
:100120008F7D03C0809180008F7780938000089539
:1001300084B58F7784BD089584B58F7DFBCF809182
:10014000B0008F778093B00008958091B0008F7DCC
:10015000F9CF1F93CF93DF93E1EBF0E09491EDE9BA
:10016000F0E0D491E9E8F0E0C491CC23B9F0182F85
:10017000992319F0892F0E948000EC2FF0E0EE0FF8
:10018000FF1FE458FF4FA591B4918FB7F894EC91FD
:10019000111108C0D095DE23DC938FBFDF91CF9182
:1001A0001F910895DE2BF8CFCF93DF93C091060106
:1001B000D091070180910801882361F080910401AA
:1001C00090910501C817D9072CF081E00E94A90081
:1001D000109208012196D0930701C0930601DF9188
:1001E000CF91089581E08093080110920701109249
:1001F000060180E00C94A900CF93DF9390E0FC010E
:10020000E656FF4F24918A579F4FFC018491882323
:10021000D1F090E0880F991FFC01E859FF4FA5919C
:10022000B491FC01E458FF4FC591D491623071F450
:100230009FB7F8943C91822F809583238C93E8811B
:100240002E2B28839FBFDF91CF9108958FB7F8940D
:10025000EC912E2B2C938FBFF6CF08951F920F9207
:100260000FB60F9211242F933F938F939F93AF93C9
:10027000BF938091100190911101A0911201B09152
:10028000130130910D0123E0230F2D3758F501960E
:10029000A11DB11D20930D018093100190931101B8
:1002A000A0931201B09313018091090190910A016A
:1002B000A0910B01B0910C010196A11DB11D80937D
:1002C000090190930A01A0930B01B0930C01BF9117
:1002D000AF919F918F913F912F910F900FBE0F90F3
:1002E0001F90189526E8230F0296A11DB11DD2CFAD
:1002F0001F920F920FB60F9211242F933F934F939B
:100300005F936F937F938F939F93AF93BF93EF937D
:10031000FF93E0910201F09103010995FF91EF91A4
:10032000BF91AF919F918F917F916F915F914F910D
:100330003F912F910F900FBE0F901F9018951F9215
:100340000F920FB60F9211242F933F934F935F9309
:100350006F937F938F939F93AF93BF93EF93FF938D
:10036000E0910001F09101010995FF91EF91BF919A
:10037000AF919F918F917F916F915F914F913F913D
:100380002F910F900FBE0F901F9018951F920F92F4
:100390000FB60F9211242F933F934F935F936F9358
:1003A0007F938F939F93AF93BF93EF93FF93E091CE
:1003B0000E01F0910F010995FF91EF91BF91AF915F
:1003C0009F918F917F916F915F914F913F912F916D
:1003D0000F900FBE0F901F901895789484B582608F
:1003E00084BD84B5816084BD85B5826085BD85B5D9
:1003F000816085BD80916E00816080936E00109257
:1004000081008091810082608093810080918100D1
:100410008160809381008091800081608093800062
:100420008091B10084608093B1008091B0008160C0
:100430008093B00080917A00846080937A008091EC
:100440007A00826080937A0080917A008160809344
:100450007A0080917A00806880937A001092C100BF
:1004600061E083E00E94FC0062E082E00E94FC0008
:1004700062E086E00E94FC0061E084E00E94FC00F3
:1004800061E085E00E94FC0080E180938100109291
:10049000800080E590E0909387008093860081E162
:1004A0008093810084ED90E090930F0180930E0182
:1004B00081E080936F0082EF90E090930101809340
:1004C000000180916900836080936900E89AC4EB21
:1004D000D0E000EA10E09CE8E92E90E0F92E20E060
:1004E000C22E20E0D22E34EFA32EBB24B394FE0103
:1004F0008491F8019490F7018490882009F465C0F4
:1005000081110E948000E82DF0E0EE0FFF1FEE58F1
:10051000FF4FA591B4918C91982209F456C0109286
:100520001901109218012FB7F89460911001709181
:10053000110180911201909113012FBF0E945C0361
:10054000209114013091150140911601509117012D
:100550000E94EA0220E030E040EA51E40E945703A2
:1005600081112CC080910401909105019C012150C2
:1005700031093093050120930401409118015091F5
:100580001901421753072CF00196909305018093AF
:1005900004012FB7F89460911001709111018091BE
:1005A0001201909113012FBF0E945C03609314010C
:1005B000709315018093160190931701C114D10413
:1005C00009F495CF0E94000092CFB0921901A09239
:1005D0001801A9CF5058BB27AA270E9402030C94E8
:1005E000D4030E94C60338F00E94CD0320F039F4F2
:1005F0009F3F19F426F40C94C3030EF4E095E7FB37
:100600000C94BD03E92F0E94E50358F3BA17620763
:1006100073078407950720F079F4A6F50C94070476
:100620000EF4E0950B2EBA2FA02D0B01B90190010D
:100630000C01CA01A0011124FF27591B99F0593F51
:1006400050F4503E68F11A16F040A22F232F342F99
:100650004427585FF3CF469537952795A795F040E7
:100660005395C9F77EF41F16BA0B620B730B840BFC
:10067000BAF09150A1F0FF0FBB1F661F771F881FB4
:10068000C2F70EC0BA0F621F731F841F48F487950C
:1006900077956795B795F7959E3F08F0B0CF9395FE
:1006A000880F08F09927EE0F9795879508950E9477
:1006B000990308F481E00895E89409C097FB3EF49B
:1006C00090958095709561957F4F8F4F9F4F99239F
:1006D000A9F0F92F96E9BB279395F695879577951D
:1006E0006795B795F111F8CFFAF4BB0F11F460FFDD
:1006F0001BC06F5F7F4F8F4F9F4F16C0882311F035
:1007000096E911C0772321F09EE8872F762F05C048
:10071000662371F096E8862F70E060E02AF09A95E3
:10072000660F771F881FDAF7880F9695879597F9D8
:100730000895990F0008550FAA0BE0E8FEEF161672
:100740001706E807F907C0F012161306E407F507C5
:1007500098F0621B730B840B950B39F40A2661F039
:10076000232B242B252B21F408950A2609F4A140DC
:10077000A6958FEF811D811D089597F99F6780E8E9
:1007800070E060E008959FEF80EC089500240A94E3
:100790001616170618060906089500240A9412165C
:1007A0001306140605060895092E0394000C11F48F
:1007B000882352F0BB0F40F4BF2B11F460FF04C03C
:1007C0006F5F7F4F8F4F9F4F089557FD9058440F95
:1007D000551F59F05F3F71F04795880F97FB991FA0
:1007E00061F09F3F79F0879508951216130614065D
:1007F000551FF2CF4695F1DF08C0161617061806EA
:10080000991FF1CF86957105610508940895E894C4
:10081000BB2766277727CB0197F90895F894FFCF78
:060820002D012D01E8038B
:107E0000112484B714BE81FFF0D085E080938100F7
:107E100082E08093C00088E18093C10086E0809377
:107E2000C20080E18093C4008EE0C9D0259A86E02C
:107E300020E33CEF91E0309385002093840096BBD3
:107E4000B09BFECF1D9AA8958150A9F7CC24DD24C4
:107E500088248394B5E0AB2EA1E19A2EF3E0BF2EE7
:107E6000A2D0813461F49FD0082FAFD0023811F036
:107E7000013811F484E001C083E08DD089C08234E0
:107E800011F484E103C0853419F485E0A6D080C0E4
:107E9000853579F488D0E82EFF2485D0082F10E0AE
:107EA000102F00270E291F29000F111F8ED06801E7
:107EB0006FC0863521F484E090D080E0DECF843638
:107EC00009F040C070D06FD0082F6DD080E0C81688
:107ED00080E7D80618F4F601B7BEE895C0E0D1E017
:107EE00062D089930C17E1F7F0E0CF16F0E7DF06D8
:107EF00018F0F601B7BEE89568D007B600FCFDCFD4
:107F0000A601A0E0B1E02C9130E011968C91119780
:107F100090E0982F8827822B932B1296FA010C0160
:107F200087BEE89511244E5F5F4FF1E0A038BF0790
:107F300051F7F601A7BEE89507B600FCFDCF97BE46
:107F4000E89526C08437B1F42ED02DD0F82E2BD052
:107F50003CD0F601EF2C8F010F5F1F4F84911BD097
:107F6000EA94F801C1F70894C11CD11CFA94CF0C13
:107F7000D11C0EC0853739F428D08EE10CD085E9AC
:107F80000AD08FE07ACF813511F488E018D01DD067
:107F900080E101D065CF982F8091C00085FFFCCF94
:107FA0009093C60008958091C00087FFFCCF809118
:107FB000C00084FD01C0A8958091C6000895E0E648
:107FC000F0E098E1908380830895EDDF803219F02E
:107FD00088E0F5DFFFCF84E1DECF1F93182FE3DFCA
:107FE0001150E9F7F2DF1F91089580E0E8DFEE27F6
:047FF000FF270994CA
:027FFE00040479
:00000001FF
