:1000000022C0189518951895189518951895189553
:100010001895189518951895189518951895189578
:100020001895189518951895189518951895189568
:100030001895189518951895189518951895189558
:10004000189518951895B0E0AEE508E00C93B0E06F
:10005000ADE50FE50C93B8E0A0E600E020E038E065
:10006000A150B0400C93215030402223C9F73323D4
:10007000B9F7B0E0AAE300E20C93B0E0ABE303E031
:100080000C93B0E0A7E300E00C93B0E0A8E308E82D
:100090000C93B0E0A4E300E00C93B0E0A5E300E033
:1000A0000C93B0E0A1E300E00C93B0E0A2E300E029
:1000B0000C93B0E0AFE400E00C93B0E0AEE40AE0F3
:1000C0000C93B0E0ABE40EE40C93B0E0AAE40EE1D4
:1000D0000C93B0E0A9E500E10C93B0E0A8E50C9129
:1000E00004FFFBCFB0E0A8E50C9100610C93A8954C
:1000F000B0E0A1E60C9102600C93B0E0A1E60C9197
:10010000B0E0A1E61C9101FF1B7F01FD14601C9370
:10011000B0E0A6E30C9103FD05C0B0E0A1E60C91B0
:100120000B7F0C93B0E0A6E30C9107FD05C0B0E097
:10013000A1E60C910B7F0C93B0E0A9E30C9100FFBA
:1001400005C0B0E0A1E60C910B7F0C93B0E0A9E3F1
:100150000C9101FF05C0B0E0A1E60C910B7F0C9360
:10016000B0E0A1E60C9102FF1EC0B0E0A2E60C9147
:10017000B0E0A3E61C9123E630E00217130794F4E5
:10018000B0E0A2E60C91B0E0A3E61C91039509F45F
:1001900013951C93B0E0A2E60C93B0E0A1E60C919D
:1001A0000B7F0C9308C0B0E0A2E600E00C93B0E037
:1001B000A3E600E00C93B0E0A1E60C91B0E0A1E66C
:1001C0001C9102FF177F02FD18601C93B0E0A1E6AE
:1001D0000C91B0E0A1E61C9101FF1B7F01FD1460B2
:1001E0001C93B0E0A6E30C9103FF05C0B0E0A1E6CC
:1001F0000C910B7F0C93B0E0A6E30C9107FD05C0BA
:10020000B0E0A1E60C910B7F0C93B0E0A9E30C9158
:1002100000FF05C0B0E0A1E60C910B7F0C93B0E0AD
:10022000A9E30C9101FF05C0B0E0A1E60C910B7FA2
:100230000C93B0E0A1E60C9102FF1EC0B0E0A4E672
:100240000C91B0E0A5E61C9123E630E002171307FD
:1002500094F4B0E0A4E60C91B0E0A5E61C910395FF
:1002600009F413951C93B0E0A4E60C93B0E0A1E66A
:100270000C910B7F0C9308C0B0E0A4E600E00C9357
:10028000B0E0A5E600E00C93B0E0A1E60C91B0E090
:10029000A1E61C9102FF1F7E02FD10611C93B0E0DD
:1002A000A1E60C91B0E0A1E61C9101FF1B7F01FDCE
:1002B00014601C93B0E0A6E30C9103FD05C0B0E010
:1002C000A1E60C910B7F0C93B0E0A9E30C9100FD2B
:1002D00005C0B0E0A1E60C910B7F0C93B0E0A6E363
:1002E0000C9107FF05C0B0E0A1E60C910B7F0C93C9
:1002F000B0E0A9E30C9101FF05C0B0E0A1E60C91CC
:100300000B7F0C93B0E0A1E60C9102FF1EC0B0E0A1
:10031000A6E60C91B0E0A7E61C9127EC30E00217AE
:10032000130794F4B0E0A6E60C91B0E0A7E61C91A8
:10033000039509F413951C93B0E0A6E60C93B0E086
:10034000A1E60C910B7F0C9308C0B0E0A6E600E09C
:100350000C93B0E0A7E600E00C93B0E0A1E60C91AE
:10036000B0E0A1E61C9102FF1F7D02FD10621C930C
:10037000B0E0A1E60C91B0E0A1E61C9101FF1B7F6B
:1003800001FD14601C93B0E0A6E30C9103FF05C0CF
:10039000B0E0A1E60C910B7F0C93B0E0A9E30C91C7
:1003A00000FD05C0B0E0A1E60C910B7F0C93B0E01E
:1003B000A6E30C9107FF05C0B0E0A1E60C910B7F0E
:1003C0000C93B0E0A9E30C9101FF05C0B0E0A1E6F9
:1003D0000C910B7F0C93B0E0A1E60C9102FF1EC0C4
:1003E000B0E0A8E60C91B0E0A9E61C9127EC30E063
:1003F0000217130794F4B0E0A8E60C91B0E0A9E668
:100400001C91039509F413951C93B0E0A8E60C9396
:10041000B0E0A1E60C910B7F0C9308C0B0E0A8E619
:1004200000E00C93B0E0A9E600E00C93B0E0A1E698
:100430000C91B0E0A1E61C9102FF1F7B02FD10644D
:100440001C93B0E0A1E60C91B0E0A1E61C9101FF85
:100450001B7F01FD14601C93B0E0A6E30C9103FD2B
:1004600005C0B0E0A1E60C910B7F0C93B0E0A9E3CE
:100470000C9101FD05C0B0E0A1E60C910B7F0C933F
:10048000B0E0A9E30C9100FF05C0B0E0A1E60C913B
:100490000B7F0C93B0E0A6E30C9107FF05C0B0E022
:1004A000A1E60C910B7F0C93B0E0A1E60C9102FF4A
:1004B0001EC0B0E0AAE60C91B0E0ABE61C912BE2C6
:1004C00031E00217130794F4B0E0AAE60C91B0E013
:1004D000ABE61C91039509F413951C93B0E0AAE6D2
:1004E0000C93B0E0A1E60C910B7F0C9308C0B0E038
:1004F000AAE600E00C93B0E0ABE600E00C93B0E0BD
:10050000A1E60C91B0E0A1E61C9102FF1F7702FD6D
:1005100010681C93B0E0A1E60C91B0E0A1E61C913C
:1005200001FF1B7F01FD14601C93B0E0A6E30C915A
:1005300003FF05C0B0E0A1E60C910B7F0C93B0E087
:10054000A9E30C9101FD05C0B0E0A1E60C910B7F81
:100550000C93B0E0A9E30C9100FF05C0B0E0A1E668
:100560000C910B7F0C93B0E0A6E30C9107FF05C044
:10057000B0E0A1E60C910B7F0C93B0E0A1E60C91EA
:1005800002FF1EC0B0E0ACE60C91B0E0ADE61C91FD
:100590002BE231E00217130794F4B0E0ACE60C91C3
:1005A000B0E0ADE61C91039509F413951C93B0E0FF
:1005B000ACE60C93B0E0A1E60C910B7F0C9308C065
:1005C000B0E0ACE600E00C93B0E0ADE600E00C93E8
:1005D000B0E0A1E60C91B0E0AEE61C9102FF1E7FF8
:1005E00002FD11601C93B0E0A1E60C91B0E0A1E621
:1005F0001C9101FF1B7F01FD14601C93B0E0AEE66F
:100600000C910D7F0C93B0E0A1E60C91B0E0AEE64A
:100610001C9102FF1B7F02FD14601C93B0E0A1E659
:100620000C9103FD05C0B0E0AEE60C910B7F0C937E
:10063000B0E0AEE60C9102FF05C0B0E0AEE60C9172
:1006400002600C93B0E0A1E60C91B0E0AEE61C9124
:1006500002FF1B7F02FD14601C93B0E0A1E60C9129
:1006600004FD05C0B0E0AEE60C910B7F0C93B0E04A
:10067000AEE60C9102FF05C0B0E0AEE60C91026060
:100680000C93B0E0A1E60C91B0E0AEE61C9102FF45
:100690001B7F02FD14601C93B0E0A1E60C9105FDE8
:1006A00005C0B0E0AEE60C910B7F0C93B0E0AEE677
:1006B0000C9102FF05C0B0E0AEE60C9102600C9315
:1006C000B0E0A1E60C91B0E0AEE61C9102FF1B7F0A
:1006D00002FD14601C93B0E0A1E60C9106FD05C07C
:1006E000B0E0AEE60C910B7F0C93B0E0AEE60C915F
:1006F00002FF05C0B0E0AEE60C9102600C93B0E0E2
:10070000A1E60C91B0E0AEE61C9102FF1B7F02FD5A
:1007100014601C93B0E0A1E60C9107FD05C0B0E0A9
:10072000AEE60C910B7F0C93B0E0AEE60C9102FFAD
:1007300005C0B0E0AEE60C9102600C93B0E0A1E61B
:100740000C91B0E0AEE61C9102FF1B7F02FD14602D
:100750001C93B0E0AEE60C9100FD05C0B0E0AEE643
:100760000C910B7F0C93B0E0AEE60C9102FF05C03C
:10077000B0E0AEE60C9102600C93B0E0AEE60C91F6
:10078000B0E0A1E61C9101FF1B7F01FD14601C93EA
:10079000B0E0A1E60C91B0E0ABE31C9102FF1F7D3D
:0C07A00002FD10621C93EDE6F0E00994ED
:00000001FF
